{
  "contractName": "FlightSuretyApp",
  "abi": [
    {
      "constant": true,
      "inputs": [],
      "name": "REGISTRATION_FEE",
      "outputs": [
        {
          "name": "",
          "type": "uint256"
        }
      ],
      "payable": false,
      "stateMutability": "view",
      "type": "function"
    },
    {
      "constant": true,
      "inputs": [],
      "name": "MIN_RESPONSES",
      "outputs": [
        {
          "name": "",
          "type": "uint256"
        }
      ],
      "payable": false,
      "stateMutability": "view",
      "type": "function"
    },
    {
      "inputs": [
        {
          "name": "dataContract",
          "type": "address"
        }
      ],
      "payable": false,
      "stateMutability": "nonpayable",
      "type": "constructor"
    },
    {
      "payable": true,
      "stateMutability": "payable",
      "type": "fallback"
    },
    {
      "anonymous": false,
      "inputs": [
        {
          "indexed": false,
          "name": "airline",
          "type": "address"
        },
        {
          "indexed": false,
          "name": "flight",
          "type": "string"
        },
        {
          "indexed": false,
          "name": "timestamp",
          "type": "uint256"
        },
        {
          "indexed": false,
          "name": "status",
          "type": "uint8"
        }
      ],
      "name": "FlightStatusInfo",
      "type": "event"
    },
    {
      "anonymous": false,
      "inputs": [
        {
          "indexed": false,
          "name": "airline",
          "type": "address"
        },
        {
          "indexed": false,
          "name": "flight",
          "type": "string"
        },
        {
          "indexed": false,
          "name": "timestamp",
          "type": "uint256"
        },
        {
          "indexed": false,
          "name": "status",
          "type": "uint8"
        }
      ],
      "name": "OracleReport",
      "type": "event"
    },
    {
      "anonymous": false,
      "inputs": [
        {
          "indexed": false,
          "name": "index",
          "type": "uint8"
        },
        {
          "indexed": false,
          "name": "airline",
          "type": "address"
        },
        {
          "indexed": false,
          "name": "flight",
          "type": "string"
        },
        {
          "indexed": false,
          "name": "timestamp",
          "type": "uint256"
        }
      ],
      "name": "OracleRequest",
      "type": "event"
    },
    {
      "constant": true,
      "inputs": [],
      "name": "isOperational",
      "outputs": [
        {
          "name": "",
          "type": "bool"
        }
      ],
      "payable": false,
      "stateMutability": "view",
      "type": "function"
    },
    {
      "constant": false,
      "inputs": [
        {
          "name": "name",
          "type": "string"
        },
        {
          "name": "wallet",
          "type": "address"
        }
      ],
      "name": "registerAirline",
      "outputs": [
        {
          "name": "success",
          "type": "bool"
        },
        {
          "name": "votes",
          "type": "uint256"
        }
      ],
      "payable": false,
      "stateMutability": "nonpayable",
      "type": "function"
    },
    {
      "constant": false,
      "inputs": [],
      "name": "getFunds",
      "outputs": [],
      "payable": false,
      "stateMutability": "nonpayable",
      "type": "function"
    },
    {
      "constant": false,
      "inputs": [
        {
          "name": "name",
          "type": "string"
        },
        {
          "name": "timestamp",
          "type": "uint256"
        },
        {
          "name": "airline",
          "type": "address"
        }
      ],
      "name": "registerFlight",
      "outputs": [],
      "payable": false,
      "stateMutability": "nonpayable",
      "type": "function"
    },
    {
      "constant": false,
      "inputs": [
        {
          "name": "airline",
          "type": "address"
        },
        {
          "name": "flight",
          "type": "string"
        },
        {
          "name": "timestamp",
          "type": "uint256"
        }
      ],
      "name": "fetchFlightStatus",
      "outputs": [],
      "payable": false,
      "stateMutability": "nonpayable",
      "type": "function"
    },
    {
      "constant": false,
      "inputs": [],
      "name": "registerOracle",
      "outputs": [],
      "payable": true,
      "stateMutability": "payable",
      "type": "function"
    },
    {
      "constant": true,
      "inputs": [],
      "name": "getMyIndexes",
      "outputs": [
        {
          "name": "",
          "type": "uint8[3]"
        }
      ],
      "payable": false,
      "stateMutability": "view",
      "type": "function"
    },
    {
      "constant": false,
      "inputs": [
        {
          "name": "index",
          "type": "uint8"
        },
        {
          "name": "airline",
          "type": "address"
        },
        {
          "name": "flight",
          "type": "string"
        },
        {
          "name": "timestamp",
          "type": "uint256"
        },
        {
          "name": "statusCode",
          "type": "uint8"
        }
      ],
      "name": "submitOracleResponse",
      "outputs": [],
      "payable": false,
      "stateMutability": "nonpayable",
      "type": "function"
    },
    {
      "constant": false,
      "inputs": [
        {
          "name": "flight",
          "type": "string"
        },
        {
          "name": "timestamp",
          "type": "uint256"
        },
        {
          "name": "airline",
          "type": "address"
        }
      ],
      "name": "buyInsurance",
      "outputs": [],
      "payable": true,
      "stateMutability": "payable",
      "type": "function"
    }
  ],
  "bytecode": "0x60806040526000604051908082528060200260200182016040528015620000355781602001602082028038833980820191505090505b50600390805190602001906200004d92919062000132565b506000600460006101000a81548160ff021916908360ff1602179055503480156200007757600080fd5b5060405160208062002727833981018060405260208110156200009957600080fd5b810190808051906020019092919050505033600160006101000a81548173ffffffffffffffffffffffffffffffffffffffff021916908373ffffffffffffffffffffffffffffffffffffffff160217905550806000806101000a81548173ffffffffffffffffffffffffffffffffffffffff021916908373ffffffffffffffffffffffffffffffffffffffff1602179055505062000207565b828054828255906000526020600020908101928215620001ae579160200282015b82811115620001ad5782518260006101000a81548173ffffffffffffffffffffffffffffffffffffffff021916908373ffffffffffffffffffffffffffffffffffffffff1602179055509160200191906001019062000153565b5b509050620001bd9190620001c1565b5090565b6200020491905b808211156200020057600081816101000a81549073ffffffffffffffffffffffffffffffffffffffff021916905550600101620001c8565b5090565b90565b61251080620002176000396000f3fe60806040526004361061009c5760003560e01c806365c152f71161006457806365c152f7146102bb57806383b03cb31461036b578063c10f270014610396578063cd905dff14610460578063f2cd81921461048f578063f83f11c0146105325761009c565b80630e2c412914610157578063339d25901461021c5780634d9b3735146102265780635f1cc0e61461023d57806364b4f75114610290575b6000809054906101000a900473ffffffffffffffffffffffffffffffffffffffff1673ffffffffffffffffffffffffffffffffffffffff16632d5052e934336040518363ffffffff1660e01b8152600401808273ffffffffffffffffffffffffffffffffffffffff1673ffffffffffffffffffffffffffffffffffffffff1681526020019150506000604051808303818588803b15801561013c57600080fd5b505af1158015610150573d6000803e3d6000fd5b5050505050005b34801561016357600080fd5b506101fb6004803603604081101561017a57600080fd5b810190808035906020019064010000000081111561019757600080fd5b8201836020820111156101a957600080fd5b803590602001918460018302840111640100000000831117156101cb57600080fd5b9091929391929390803573ffffffffffffffffffffffffffffffffffffffff1690602001909291905050506105e2565b60405180831515151581526020018281526020019250505060405180910390f35b610224610f70565b005b34801561023257600080fd5b5061023b611096565b005b34801561024957600080fd5b50610252611150565b6040518082600360200280838360005b8381101561027d578082015181840152602081019050610262565b5050505090500191505060405180910390f35b34801561029c57600080fd5b506102a56112c3565b6040518082815260200191505060405180910390f35b3480156102c757600080fd5b50610369600480360360608110156102de57600080fd5b81019080803590602001906401000000008111156102fb57600080fd5b82018360208201111561030d57600080fd5b8035906020019184600183028401116401000000008311171561032f57600080fd5b909192939192939080359060200190929190803573ffffffffffffffffffffffffffffffffffffffff1690602001909291905050506112cf565b005b34801561037757600080fd5b506103806113c9565b6040518082815260200191505060405180910390f35b3480156103a257600080fd5b5061045e600480360360a08110156103b957600080fd5b81019080803560ff169060200190929190803573ffffffffffffffffffffffffffffffffffffffff1690602001909291908035906020019064010000000081111561040357600080fd5b82018360208201111561041557600080fd5b8035906020019184600183028401116401000000008311171561043757600080fd5b909192939192939080359060200190929190803560ff1690602001909291905050506113ce565b005b34801561046c57600080fd5b506104756118ef565b604051808215151515815260200191505060405180910390f35b610530600480360360608110156104a557600080fd5b81019080803590602001906401000000008111156104c257600080fd5b8201836020820111156104d457600080fd5b803590602001918460018302840111640100000000831117156104f657600080fd5b909192939192939080359060200190929190803573ffffffffffffffffffffffffffffffffffffffff169060200190929190505050611998565b005b34801561053e57600080fd5b506105e06004803603606081101561055557600080fd5b81019080803573ffffffffffffffffffffffffffffffffffffffff1690602001909291908035906020019064010000000081111561059257600080fd5b8201836020820111156105a457600080fd5b803590602001918460018302840111640100000000831117156105c657600080fd5b909192939192939080359060200190929190505050611b20565b005b600080600160009054906101000a900473ffffffffffffffffffffffffffffffffffffffff1673ffffffffffffffffffffffffffffffffffffffff163373ffffffffffffffffffffffffffffffffffffffff16146108b4576000809054906101000a900473ffffffffffffffffffffffffffffffffffffffff1673ffffffffffffffffffffffffffffffffffffffff1663010c5c97336040518263ffffffff1660e01b8152600401808273ffffffffffffffffffffffffffffffffffffffff1673ffffffffffffffffffffffffffffffffffffffff16815260200191505060206040518083038186803b1580156106d857600080fd5b505afa1580156106ec573d6000803e3d6000fd5b505050506040513d602081101561070257600080fd5b8101908080519060200190929190505050610768576040517f08c379a00000000000000000000000000000000000000000000000000000000081526004018080602001828103825260228152602001806124576022913960400191505060405180910390fd5b6000809054906101000a900473ffffffffffffffffffffffffffffffffffffffff1673ffffffffffffffffffffffffffffffffffffffff1663f53b6d65336040518263ffffffff1660e01b8152600401808273ffffffffffffffffffffffffffffffffffffffff1673ffffffffffffffffffffffffffffffffffffffff16815260200191505060206040518083038186803b15801561080657600080fd5b505afa15801561081a573d6000803e3d6000fd5b505050506040513d602081101561083057600080fd5b81019080805190602001909291905050506108b3576040517f08c379a00000000000000000000000000000000000000000000000000000000081526004018080602001828103825260158152602001807f4169726c696e65206973206e6f742066756e646564000000000000000000000081525060200191505060405180910390fd5b5b6000809054906101000a900473ffffffffffffffffffffffffffffffffffffffff1673ffffffffffffffffffffffffffffffffffffffff1663010c5c97846040518263ffffffff1660e01b8152600401808273ffffffffffffffffffffffffffffffffffffffff1673ffffffffffffffffffffffffffffffffffffffff16815260200191505060206040518083038186803b15801561095257600080fd5b505afa158015610966573d6000803e3d6000fd5b505050506040513d602081101561097c57600080fd5b810190808051906020019092919050505015610a00576040517f08c379a000000000000000000000000000000000000000000000000000000000815260040180806020018281038252601d8152602001807f4169726c696e6520697320616c7265616479207265676973746572656400000081525060200191505060405180910390fd5b60008060009054906101000a900473ffffffffffffffffffffffffffffffffffffffff1673ffffffffffffffffffffffffffffffffffffffff16637f9e18086040518163ffffffff1660e01b815260040160206040518083038186803b158015610a6957600080fd5b505afa158015610a7d573d6000803e3d6000fd5b505050506040513d6020811015610a9357600080fd5b810190808051906020019092919050505090506000610abc600283611d1190919063ffffffff16565b90506000610ad4600284611da090919063ffffffff16565b14610af057610aed600182611e2a90919063ffffffff16565b90505b6004821015610bf6576000809054906101000a900473ffffffffffffffffffffffffffffffffffffffff1673ffffffffffffffffffffffffffffffffffffffff16630e2c41298888886040518463ffffffff1660e01b815260040180806020018373ffffffffffffffffffffffffffffffffffffffff1673ffffffffffffffffffffffffffffffffffffffff1681526020018281038252858582818152602001925080828437600081840152601f19601f820116905080830192505050945050505050600060405180830381600087803b158015610bcd57600080fd5b505af1158015610be1573d6000803e3d6000fd5b50505050600180809050935093505050610f68565b6000600260003373ffffffffffffffffffffffffffffffffffffffff1673ffffffffffffffffffffffffffffffffffffffff16815260200190815260200160002060009054906101000a900460ff1690508015610c9e576040517f08c379a00000000000000000000000000000000000000000000000000000000081526004018080602001828103825260278152602001806124be6027913960400191505060405180910390fd5b6001600260003373ffffffffffffffffffffffffffffffffffffffff1673ffffffffffffffffffffffffffffffffffffffff16815260200190815260200160002060006101000a81548160ff02191690831515021790555060033390806001815401808255809150509060018203906000526020600020016000909192909190916101000a81548173ffffffffffffffffffffffffffffffffffffffff021916908373ffffffffffffffffffffffffffffffffffffffff160217905550508160038054905010610f58576000809054906101000a900473ffffffffffffffffffffffffffffffffffffffff1673ffffffffffffffffffffffffffffffffffffffff16630e2c41298989896040518463ffffffff1660e01b815260040180806020018373ffffffffffffffffffffffffffffffffffffffff1673ffffffffffffffffffffffffffffffffffffffff1681526020018281038252858582818152602001925080828437600081840152601f19601f820116905080830192505050945050505050600060405180830381600087803b158015610e3c57600080fd5b505af1158015610e50573d6000803e3d6000fd5b5050505060008090505b600380549050811015610f015760006002600060038481548110610e7a57fe5b9060005260206000200160009054906101000a900473ffffffffffffffffffffffffffffffffffffffff1673ffffffffffffffffffffffffffffffffffffffff1673ffffffffffffffffffffffffffffffffffffffff16815260200190815260200160002060006101000a81548160ff021916908315150217905550806001019050610e5a565b506000604051908082528060200260200182016040528015610f325781602001602082028038833980820191505090505b5060039080519060200190610f4892919061226e565b5060018294509450505050610f68565b6000600380549050945094505050505b935093915050565b670de0b6b3a7640000341015610fee576040517f08c379a000000000000000000000000000000000000000000000000000000000815260040180806020018281038252601c8152602001807f526567697374726174696f6e206665652069732072657175697265640000000081525060200191505060405180910390fd5b610ff66122f8565b610fff33611eb2565b9050604051806040016040528060011515815260200182815250600560003373ffffffffffffffffffffffffffffffffffffffff1673ffffffffffffffffffffffffffffffffffffffff16815260200190815260200160002060008201518160000160006101000a81548160ff02191690831515021790555060208201518160010190600361108f92919061231a565b5090505050565b6000809054906101000a900473ffffffffffffffffffffffffffffffffffffffff1673ffffffffffffffffffffffffffffffffffffffff16630c11dedd336040518263ffffffff1660e01b8152600401808273ffffffffffffffffffffffffffffffffffffffff1673ffffffffffffffffffffffffffffffffffffffff168152602001915050600060405180830381600087803b15801561113657600080fd5b505af115801561114a573d6000803e3d6000fd5b50505050565b6111586122f8565b600560003373ffffffffffffffffffffffffffffffffffffffff1673ffffffffffffffffffffffffffffffffffffffff16815260200190815260200160002060000160009054906101000a900460ff1661121a576040517f08c379a000000000000000000000000000000000000000000000000000000000815260040180806020018281038252601b8152602001807f4e6f74207265676973746572656420617320616e206f7261636c65000000000081525060200191505060405180910390fd5b600560003373ffffffffffffffffffffffffffffffffffffffff1673ffffffffffffffffffffffffffffffffffffffff1681526020019081526020016000206001016003806020026040519081016040528092919082600380156112b9576020028201916000905b82829054906101000a900460ff1660ff16815260200190600101906020826000010492830192600103820291508084116112825790505b5050505050905090565b670de0b6b3a764000081565b6000809054906101000a900473ffffffffffffffffffffffffffffffffffffffff1673ffffffffffffffffffffffffffffffffffffffff166365c152f7858585856040518563ffffffff1660e01b815260040180806020018481526020018373ffffffffffffffffffffffffffffffffffffffff1673ffffffffffffffffffffffffffffffffffffffff1681526020018281038252868682818152602001925080828437600081840152601f19601f82011690508083019250505095505050505050600060405180830381600087803b1580156113ab57600080fd5b505af11580156113bf573d6000803e3d6000fd5b5050505050505050565b600381565b8560ff16600560003373ffffffffffffffffffffffffffffffffffffffff1673ffffffffffffffffffffffffffffffffffffffff16815260200190815260200160002060010160006003811061142057fe5b602091828204019190069054906101000a900460ff1660ff1614806114ad57508560ff16600560003373ffffffffffffffffffffffffffffffffffffffff1673ffffffffffffffffffffffffffffffffffffffff16815260200190815260200160002060010160016003811061149257fe5b602091828204019190069054906101000a900460ff1660ff16145b8061152057508560ff16600560003373ffffffffffffffffffffffffffffffffffffffff1673ffffffffffffffffffffffffffffffffffffffff16815260200190815260200160002060010160026003811061150557fe5b602091828204019190069054906101000a900460ff1660ff16145b611575576040517f08c379a000000000000000000000000000000000000000000000000000000000815260040180806020018281038252602381526020018061249b6023913960400191505060405180910390fd5b60008686868686604051602001808660ff1660ff1660f81b81526001018573ffffffffffffffffffffffffffffffffffffffff1673ffffffffffffffffffffffffffffffffffffffff1660601b815260140184848082843780830192505050828152602001955050505050506040516020818303038152906040528051906020012090506006600082815260200190815260200160002060000160149054906101000a900460ff16611672576040517f08c379a000000000000000000000000000000000000000000000000000000000815260040180806020018281038252602f815260200180612428602f913960400191505060405180910390fd5b6006600082815260200190815260200160002060010160008360ff1660ff1681526020019081526020016000203390806001815401808255809150509060018203906000526020600020016000909192909190916101000a81548173ffffffffffffffffffffffffffffffffffffffff021916908373ffffffffffffffffffffffffffffffffffffffff160217905550507f43c853095c2752648493c88b4baac4d580d2594ffb00c6f1d4242d844514f7838686868686604051808673ffffffffffffffffffffffffffffffffffffffff1673ffffffffffffffffffffffffffffffffffffffff168152602001806020018481526020018360ff1660ff1681526020018281038252868682818152602001925080828437600081840152601f19601f820116905080830192505050965050505050505060405180910390a160036006600083815260200190815260200160002060010160008460ff1660ff16815260200190815260200160002080549050106118e6577fe23f5229de535c091e3b7bec2665f5d698192d3b31393066e8987b7a05076b6c8686868686604051808673ffffffffffffffffffffffffffffffffffffffff1673ffffffffffffffffffffffffffffffffffffffff168152602001806020018481526020018360ff1660ff1681526020018281038252868682818152602001925080828437600081840152601f19601f820116905080830192505050965050505050505060405180910390a16118e58686868080601f016020809104026020016040519081016040528093929190818152602001838380828437600081840152601f19601f82011690508083019250505050505050858561203e565b5b50505050505050565b60008060009054906101000a900473ffffffffffffffffffffffffffffffffffffffff1673ffffffffffffffffffffffffffffffffffffffff1663cd905dff6040518163ffffffff1660e01b815260040160206040518083038186803b15801561195857600080fd5b505afa15801561196c573d6000803e3d6000fd5b505050506040513d602081101561198257600080fd5b8101908080519060200190929190505050905090565b600034116119f1576040517f08c379a00000000000000000000000000000000000000000000000000000000081526004018080602001828103825260228152602001806124796022913960400191505060405180910390fd5b6000809054906101000a900473ffffffffffffffffffffffffffffffffffffffff1673ffffffffffffffffffffffffffffffffffffffff16637ef9857a3486868686336040518763ffffffff1660e01b815260040180806020018581526020018473ffffffffffffffffffffffffffffffffffffffff1673ffffffffffffffffffffffffffffffffffffffff1681526020018373ffffffffffffffffffffffffffffffffffffffff1673ffffffffffffffffffffffffffffffffffffffff1681526020018281038252878782818152602001925080828437600081840152601f19601f82011690508083019250505096505050505050506000604051808303818588803b158015611b0157600080fd5b505af1158015611b15573d6000803e3d6000fd5b505050505050505050565b6000611b2b3361217e565b905060008186868686604051602001808660ff1660ff1660f81b81526001018573ffffffffffffffffffffffffffffffffffffffff1673ffffffffffffffffffffffffffffffffffffffff1660601b8152601401848480828437808301925050508281526020019550505050505060405160208183030381529060405280519060200120905060405180604001604052803373ffffffffffffffffffffffffffffffffffffffff168152602001600115158152506006600083815260200190815260200160002060008201518160000160006101000a81548173ffffffffffffffffffffffffffffffffffffffff021916908373ffffffffffffffffffffffffffffffffffffffff16021790555060208201518160000160146101000a81548160ff0219169083151502179055509050507f3ed01f2c3fc24c6b329d931e35b03e390d23497d22b3f90e15b600343e93df118287878787604051808660ff1660ff1681526020018573ffffffffffffffffffffffffffffffffffffffff1673ffffffffffffffffffffffffffffffffffffffff168152602001806020018381526020018281038252858582818152602001925080828437600081840152601f19601f820116905080830192505050965050505050505060405180910390a1505050505050565b6000808211611d88576040517f08c379a000000000000000000000000000000000000000000000000000000000815260040180806020018281038252601a8152602001807f536166654d6174683a206469766973696f6e206279207a65726f00000000000081525060200191505060405180910390fd5b6000828481611d9357fe5b0490508091505092915050565b600080821415611e18576040517f08c379a00000000000000000000000000000000000000000000000000000000081526004018080602001828103825260188152602001807f536166654d6174683a206d6f64756c6f206279207a65726f000000000000000081525060200191505060405180910390fd5b818381611e2157fe5b06905092915050565b600080828401905083811015611ea8576040517f08c379a000000000000000000000000000000000000000000000000000000000815260040180806020018281038252601b8152602001807f536166654d6174683a206164646974696f6e206f766572666c6f77000000000081525060200191505060405180910390fd5b8091505092915050565b611eba6122f8565b611ec26122f8565b611ecb8361217e565b81600060038110611ed857fe5b602002019060ff16908160ff168152505080600060038110611ef657fe5b602002015181600160038110611f0857fe5b602002019060ff16908160ff16815250505b80600060038110611f2757fe5b602002015160ff1681600160038110611f3c57fe5b602002015160ff161415611f7657611f538361217e565b81600160038110611f6057fe5b602002019060ff16908160ff1681525050611f1a565b80600160038110611f8357fe5b602002015181600260038110611f9557fe5b602002019060ff16908160ff16815250505b80600060038110611fb457fe5b602002015160ff1681600260038110611fc957fe5b602002015160ff161480612004575080600160038110611fe557fe5b602002015160ff1681600260038110611ffa57fe5b602002015160ff16145b15612035576120128361217e565b8160026003811061201f57fe5b602002019060ff16908160ff1681525050611fa7565b80915050919050565b60148160ff161415612178576000809054906101000a900473ffffffffffffffffffffffffffffffffffffffff1673ffffffffffffffffffffffffffffffffffffffff16634266ed6a8484876040518463ffffffff1660e01b815260040180806020018481526020018373ffffffffffffffffffffffffffffffffffffffff1673ffffffffffffffffffffffffffffffffffffffff168152602001828103825285818151815260200191508051906020019080838360005b838110156121115780820151818401526020810190506120f6565b50505050905090810190601f16801561213e5780820380516001836020036101000a031916815260200191505b50945050505050600060405180830381600087803b15801561215f57600080fd5b505af1158015612173573d6000803e3d6000fd5b505050505b50505050565b600080600a905060008160ff166004600081819054906101000a900460ff168092919060010191906101000a81548160ff021916908360ff16021790555060ff1643034085604051602001808381526020018273ffffffffffffffffffffffffffffffffffffffff1673ffffffffffffffffffffffffffffffffffffffff1660601b8152601401925050506040516020818303038152906040528051906020012060001c8161222957fe5b06905060fa600460009054906101000a900460ff1660ff161115612264576000600460006101000a81548160ff021916908360ff1602179055505b8092505050919050565b8280548282559060005260206000209081019282156122e7579160200282015b828111156122e65782518260006101000a81548173ffffffffffffffffffffffffffffffffffffffff021916908373ffffffffffffffffffffffffffffffffffffffff1602179055509160200191906001019061228e565b5b5090506122f491906123b4565b5090565b6040518060600160405280600390602082028038833980820191505090505090565b826003601f016020900481019282156123a35791602002820160005b8382111561237457835183826101000a81548160ff021916908360ff1602179055509260200192600101602081600001049283019260010302612336565b80156123a15782816101000a81549060ff0219169055600101602081600001049283019260010302612374565b505b5090506123b091906123f7565b5090565b6123f491905b808211156123f057600081816101000a81549073ffffffffffffffffffffffffffffffffffffffff0219169055506001016123ba565b5090565b90565b61242491905b8082111561242057600081816101000a81549060ff0219169055506001016123fd565b5090565b9056fe466c69676874206f722074696d657374616d7020646f206e6f74206d61746368206f7261636c65207265717565737443616c6c6572206973206e6f7420612072656769737465726564206169726c696e6543616e6e6f742062757920696e737572616e636520776974686f75742066756e6473496e64657820646f6573206e6f74206d61746368206f7261636c65207265717565737443616c6c65722068617320616c72656164792063616c6c656420746869732066756e6374696f6ea165627a7a72305820b7278a1cb4294c52cfb2e402b5d30bb353342810f0dbec72035e6681c58889870029",
  "source": "pragma solidity ^0.5.8;\n\nimport \"../node_modules/openzeppelin-solidity/contracts/math/SafeMath.sol\";\n\n/************************************************** */\n/* FlightSurety Smart Contract                      */\n/************************************************** */\ncontract FlightSuretyApp {\n    using SafeMath for uint256;\n    FlightSuretyData flightSuretyData;\n\n    /********************************************************************************************/\n    /*                                       DATA VARIABLES                                     */\n    /********************************************************************************************/\n\n    // Flight status codes\n    uint8 private constant STATUS_CODE_UNKNOWN = 0;\n    uint8 private constant STATUS_CODE_ON_TIME = 10;\n    uint8 private constant STATUS_CODE_LATE_AIRLINE = 20;\n    uint8 private constant STATUS_CODE_LATE_WEATHER = 30;\n    uint8 private constant STATUS_CODE_LATE_TECHNICAL = 40;\n    uint8 private constant STATUS_CODE_LATE_OTHER = 50;\n\n    address private contractOwner;          // Account used to deploy contract\n    mapping(address => bool) multiCalls;    // Mapping for storing multi-call addresses\n    address[] multiCallKeys = new address[](0);\n\n    /********************************************************************************************/\n    /*                            DATA VARIABLES FOR ORACLE                                     */\n    /********************************************************************************************/\n\n    uint8 private nonce = 0;                                    // Incremented to add pseudo-randomness at various points\n    uint256 public constant REGISTRATION_FEE = 1 ether;         // Fee to be paid when registering oracle\n    uint256 public constant MIN_RESPONSES = 3;                  // Number of oracles that must respond for valid status\n\n    struct Oracle {\n        bool isRegistered;\n        uint8[3] indexes;\n    }\n\n    // Responses from oracles. This lets us group responses and identify the response that majority of the oracles\n    struct ResponseInfo {\n        address requester;                              // Account that requested status\n        bool isOpen;                                    // If open, oracle responses are accepted\n        mapping(uint8 => address[]) responses;          // Mapping key is the status code reported .\n    }\n\n    mapping(address => Oracle) private oracles;                 // Track all registered oracles\n    mapping(bytes32 => ResponseInfo) private oracleResponses;   // Track all oracle responses: Key = hash(index, flight, timestamp)\n\n\n    /********************************************************************************************/\n    /*                                       FUNCTION MODIFIERS                                 */\n    /********************************************************************************************/\n\n    // Modifiers help avoid duplication of code. They are typically used to validate something\n    // before a function is allowed to be executed.\n\n    /**\n    * @dev Modifier that requires the \"operational\" boolean variable to be \"true\"\n    *      This is used on all state changing functions to pause the contract in\n    *      the event there is an issue that needs to be fixed\n    */\n    modifier requireIsOperational(){\n        bool dataOperational = flightSuretyData.isOperational();        // Modify to call data contract's status\n        require(dataOperational, \"Contract is currently not operational\");\n        _;\n    }\n\n    /**\n    * @dev Modifier that requires the \"ContractOwner\" account to be the function caller\n    */\n    modifier requireContractOwner(){\n        require(msg.sender == contractOwner, \"Caller is not contract owner\");\n        _;\n    }\n\n    modifier isFunded(address wallet) {\n        require(flightSuretyData.isAirlineFunded(wallet), \"Airline is not funded\");\n        _;\n    }\n\n    modifier isAllowedToRegisterAirline() {\n        if (msg.sender != contractOwner) {\n            require(flightSuretyData.isAirlineRegistered(msg.sender), \"Caller is not a registered airline\");\n            require(flightSuretyData.isAirlineFunded(msg.sender), \"Airline is not funded\");\n        }\n        _;\n    }\n\n    /********************************************************************************************/\n    /*                     EVENT DEFINITIONS & CONSTRUCTOR                                      */\n    /********************************************************************************************/\n    // Event fired each time an oracle submits a response\n    event FlightStatusInfo(address airline, string flight, uint256 timestamp, uint8 status);\n    event OracleReport(address airline, string flight, uint256 timestamp, uint8 status);\n\n    // Event fired when flight status request is submitted\n    // Oracles track this and if they have a matching index they fetch data and submit a response\n    event OracleRequest(uint8 index, address airline, string flight, uint256 timestamp);\n\n    /**\n    * @dev Contract constructor\n    *\n    */\n    constructor(address dataContract) public{\n        contractOwner = msg.sender;\n        flightSuretyData = FlightSuretyData(dataContract);\n    }\n\n    /********************************************************************************************/\n    /*                                       UTILITY FUNCTIONS                                  */\n    /********************************************************************************************/\n\n    function isOperational() public view returns (bool){\n        return flightSuretyData.isOperational();            // Modify to call data contract's status\n    }\n\n    /********************************************************************************************/\n    /*                                     SMART CONTRACT FUNCTIONS                             */\n    /********************************************************************************************/\n\n    /**\n     * @dev Add an airline to the registration queue\n     *\n     */\n    function registerAirline(string calldata name, address wallet) external isAllowedToRegisterAirline returns (bool success, uint256 votes){\n        require(!flightSuretyData.isAirlineRegistered(wallet), \"Airline is already registered\");\n        uint airlineCount = flightSuretyData.getAirlineCount();\n        uint votes_needed = airlineCount.div(2);\n        if (airlineCount.mod(2) != 0) {\n            votes_needed = votes_needed.add(1);\n        }\n        if (airlineCount < 4) {\n            flightSuretyData.registerAirline(name, wallet);\n            return (true, 1);\n        } else {\n            bool isDuplicate = multiCalls[msg.sender];\n            require(!isDuplicate, \"Caller has already called this function\");\n            multiCalls[msg.sender] = true;\n            multiCallKeys.push(msg.sender);\n            if (multiCallKeys.length >= votes_needed) {\n                flightSuretyData.registerAirline(name, wallet);\n                for (uint i = 0; i < multiCallKeys.length; ++i) {\n                    multiCalls[multiCallKeys[i]] = false;\n                }\n                multiCallKeys = new address[](0);\n                return (true, votes_needed);\n            }\n            return (false, multiCallKeys.length);\n        }\n    }\n\n    function getFunds() external {\n        flightSuretyData.pay(msg.sender);\n    }\n\n    /**\n     * @dev Register a future flight for insuring.\n     *\n     */\n    function registerFlight(string calldata name, uint256 timestamp, address airline) external {\n        flightSuretyData.registerFlight(name, timestamp, airline);\n    }\n\n    /**\n     * @dev Called after oracle has updated flight status\n     *\n     */\n    function processFlightStatus(address airline, string memory flight, uint256 timestamp, uint8 statusCode) internal{\n        if (statusCode == 20) {\n            flightSuretyData.creditInsurees(flight, timestamp, airline);\n        }\n    }\n\n\n    // Generate a request for oracles to fetch flight information\n    function fetchFlightStatus(address airline, string calldata flight, uint256 timestamp) external{\n        uint8 index = getRandomIndex(msg.sender);\n\n        // Generate a unique key for storing the request\n        bytes32 key = keccak256(abi.encodePacked(index, airline, flight, timestamp));\n        oracleResponses[key] = ResponseInfo({requester : msg.sender, isOpen : true});\n\n        emit OracleRequest(index, airline, flight, timestamp);\n    }\n\n\n    // Register an oracle with the contract\n    function registerOracle() external payable{\n        // Require registration fee\n        require(msg.value >= REGISTRATION_FEE, \"Registration fee is required\");\n        uint8[3] memory indexes = generateIndexes(msg.sender);\n        oracles[msg.sender] = Oracle({isRegistered : true, indexes : indexes});\n    }\n\n    // function to call an array[3] which has random number of 0-9\n    function getMyIndexes() view external returns (uint8[3] memory) {\n        require(oracles[msg.sender].isRegistered, \"Not registered as an oracle\");\n        return oracles[msg.sender].indexes;\n    }\n\n\n    // Called by oracle when a response is available to an outstanding request\n    // For the response to be accepted, there must be a pending request that is open\n    // and matches one of the three Indexes randomly assigned to the oracle at the\n    // time of registration (i.e. uninvited oracles are not welcome)\n    function submitOracleResponse(uint8 index, address airline, string calldata flight, uint256 timestamp, uint8 statusCode) external{\n        require((oracles[msg.sender].indexes[0] == index)\n        || (oracles[msg.sender].indexes[1] == index)\n            || (oracles[msg.sender].indexes[2] == index),\n            \"Index does not match oracle request\");\n\n\n        bytes32 key = keccak256(abi.encodePacked(index, airline, flight, timestamp));\n        require(oracleResponses[key].isOpen, \"Flight or timestamp do not match oracle request\");\n\n        oracleResponses[key].responses[statusCode].push(msg.sender);\n\n        // Information isn't considered verified until at least MIN_RESPONSES\n        // oracles respond with the *** same *** information\n        emit OracleReport(airline, flight, timestamp, statusCode);\n        if (oracleResponses[key].responses[statusCode].length >= MIN_RESPONSES) {\n\n            emit FlightStatusInfo(airline, flight, timestamp, statusCode);\n\n            // Handle flight status as appropriate\n            processFlightStatus(airline, flight, timestamp, statusCode);\n        }\n    }\n\n    function buyInsurance( string calldata flight, uint256 timestamp, address airline) external payable {\n        require(msg.value > 0, 'Cannot buy insurance without funds');\n        flightSuretyData.buy.value(msg.value)(flight, timestamp, airline, msg.sender);\n    }\n\n    function getFlightKey(address airline, string memory flight, uint256 timestamp) pure internal returns (bytes32){\n        return keccak256(abi.encodePacked(airline, flight, timestamp));\n    }\n\n    // Returns array of three non-duplicating integers from 0-9\n    function generateIndexes(address account)internal returns (uint8[3] memory){\n        uint8[3] memory indexes;\n        indexes[0] = getRandomIndex(account);\n\n        indexes[1] = indexes[0];\n        while (indexes[1] == indexes[0]) {\n            indexes[1] = getRandomIndex(account);\n        }\n\n        indexes[2] = indexes[1];\n        while ((indexes[2] == indexes[0]) || (indexes[2] == indexes[1])) {\n            indexes[2] = getRandomIndex(account);\n        }\n\n        return indexes;\n    }\n\n    // Returns non-duplicating integers from 0-9\n    function getRandomIndex (address account)internal returns (uint8){\n        uint8 maxValue = 10;\n\n        // Pseudo random number...the incrementing nonce adds variation\n        uint8 random = uint8(uint256(keccak256(abi.encodePacked(blockhash(block.number - nonce++), account))) % maxValue);\n\n        if (nonce > 250) {\n            nonce = 0;      // Can only fetch blockhashes for last 256 blocks so we adapt\n        }\n        return random;\n    }\n\n    /**\n    * @dev Fallback function for funding smart contract.\n    *\n    */\n    function() external payable{\n        flightSuretyData.fundForwarded.value(msg.value)(msg.sender);\n    }\n}\n\ncontract FlightSuretyData {\n    function isOperational() external view returns (bool);\n\n    function setOperatingStatus(bool mode) external;\n\n    function isAirlineRegistered(address wallet) external view returns (bool);\n\n    function isAirlineFunded(address wallet) external view returns (bool);\n\n    function registerAirline(string calldata name, address wallet) external;\n\n    function getAirlineCount() external view returns (uint256);\n\n    function isFlightRegistered(string calldata name, uint256 timestamp, address airline) external view returns (bool);\n\n    function registerFlight(string calldata name, uint256 timestamp, address airline) external;\n\n    function buy(string calldata flight, uint256 timestamp, address airline, address insuree) external payable;\n\n    function creditInsurees(string calldata flight, uint256 timestamp, address airline) external;\n\n    function pay(address payable insuree) external;\n\n    function fundForwarded(address sender) external payable;\n\n}",
  "sourcePath": "/Users/Divik/Desktop/Development/Udacity/5.Daap_with_autonomous_SmartContract/FlightSurety/contracts/FlightSuretyApp.sol",
  "compiler": {
    "name": "solc",
    "version": "0.5.8+commit.23d335f2.Emscripten.clang"
  },
  "schemaVersion": "3.0.16",
  "updatedAt": "2019-09-29T10:10:43.270Z",
  "devdoc": {
    "methods": {
      "constructor": {
        "details": "Contract constructor    "
      },
      "registerAirline(string,address)": {
        "details": "Add an airline to the registration queue     "
      },
      "registerFlight(string,uint256,address)": {
        "details": "Register a future flight for insuring.     "
      }
    }
  },
  "userdoc": {
    "methods": {
      "isOperational()": {
        "notice": "*****************************************************************************************"
      }
    },
    "notice": "************************************************ "
  }
}