{
  "contractName": "FlightSuretyData",
  "abi": [
    {
      "constant": true,
      "inputs": [],
      "name": "AIRLINE_MIN_FUNDS",
      "outputs": [
        {
          "name": "",
          "type": "uint256"
        }
      ],
      "payable": false,
      "stateMutability": "view",
      "type": "function"
    },
    {
      "constant": true,
      "inputs": [],
      "name": "MAX_INSURANCE_POLICY",
      "outputs": [
        {
          "name": "",
          "type": "uint256"
        }
      ],
      "payable": false,
      "stateMutability": "view",
      "type": "function"
    },
    {
      "inputs": [],
      "payable": false,
      "stateMutability": "nonpayable",
      "type": "constructor"
    },
    {
      "payable": true,
      "stateMutability": "payable",
      "type": "fallback"
    },
    {
      "anonymous": false,
      "inputs": [
        {
          "indexed": false,
          "name": "insuree",
          "type": "address"
        },
        {
          "indexed": false,
          "name": "credit",
          "type": "uint256"
        },
        {
          "indexed": false,
          "name": "total",
          "type": "uint256"
        }
      ],
      "name": "InsureeCredited",
      "type": "event"
    },
    {
      "anonymous": false,
      "inputs": [
        {
          "indexed": false,
          "name": "i",
          "type": "uint256"
        },
        {
          "indexed": false,
          "name": "insuree",
          "type": "address"
        },
        {
          "indexed": false,
          "name": "id",
          "type": "bytes32"
        },
        {
          "indexed": false,
          "name": "airline",
          "type": "address"
        },
        {
          "indexed": false,
          "name": "flight",
          "type": "string"
        },
        {
          "indexed": false,
          "name": "ftimestamp",
          "type": "uint256"
        },
        {
          "indexed": false,
          "name": "value",
          "type": "uint256"
        }
      ],
      "name": "debug",
      "type": "event"
    },
    {
      "constant": true,
      "inputs": [],
      "name": "isOperational",
      "outputs": [
        {
          "name": "",
          "type": "bool"
        }
      ],
      "payable": false,
      "stateMutability": "view",
      "type": "function"
    },
    {
      "constant": false,
      "inputs": [
        {
          "name": "mode",
          "type": "bool"
        }
      ],
      "name": "setOperatingStatus",
      "outputs": [],
      "payable": false,
      "stateMutability": "nonpayable",
      "type": "function"
    },
    {
      "constant": false,
      "inputs": [
        {
          "name": "caller",
          "type": "address"
        }
      ],
      "name": "authorizeCaller",
      "outputs": [],
      "payable": false,
      "stateMutability": "nonpayable",
      "type": "function"
    },
    {
      "constant": false,
      "inputs": [
        {
          "name": "caller",
          "type": "address"
        }
      ],
      "name": "deauthorizeCaller",
      "outputs": [],
      "payable": false,
      "stateMutability": "nonpayable",
      "type": "function"
    },
    {
      "constant": false,
      "inputs": [
        {
          "name": "name",
          "type": "string"
        },
        {
          "name": "wallet",
          "type": "address"
        }
      ],
      "name": "registerAirline",
      "outputs": [],
      "payable": false,
      "stateMutability": "nonpayable",
      "type": "function"
    },
    {
      "constant": true,
      "inputs": [],
      "name": "getAirlineCount",
      "outputs": [
        {
          "name": "",
          "type": "uint256"
        }
      ],
      "payable": false,
      "stateMutability": "view",
      "type": "function"
    },
    {
      "constant": true,
      "inputs": [],
      "name": "getFlights",
      "outputs": [
        {
          "name": "",
          "type": "string[]"
        },
        {
          "name": "",
          "type": "address[]"
        },
        {
          "name": "",
          "type": "uint256[]"
        }
      ],
      "payable": false,
      "stateMutability": "view",
      "type": "function"
    },
    {
      "constant": true,
      "inputs": [
        {
          "name": "wallet",
          "type": "address"
        }
      ],
      "name": "isAirlineRegistered",
      "outputs": [
        {
          "name": "",
          "type": "bool"
        }
      ],
      "payable": false,
      "stateMutability": "view",
      "type": "function"
    },
    {
      "constant": true,
      "inputs": [
        {
          "name": "wallet",
          "type": "address"
        }
      ],
      "name": "isAirlineFunded",
      "outputs": [
        {
          "name": "",
          "type": "bool"
        }
      ],
      "payable": false,
      "stateMutability": "view",
      "type": "function"
    },
    {
      "constant": true,
      "inputs": [
        {
          "name": "name",
          "type": "string"
        },
        {
          "name": "timestamp",
          "type": "uint256"
        },
        {
          "name": "airline",
          "type": "address"
        }
      ],
      "name": "isFlightRegistered",
      "outputs": [
        {
          "name": "",
          "type": "bool"
        }
      ],
      "payable": false,
      "stateMutability": "view",
      "type": "function"
    },
    {
      "constant": false,
      "inputs": [
        {
          "name": "name",
          "type": "string"
        },
        {
          "name": "timestamp",
          "type": "uint256"
        },
        {
          "name": "airline",
          "type": "address"
        }
      ],
      "name": "registerFlight",
      "outputs": [],
      "payable": false,
      "stateMutability": "nonpayable",
      "type": "function"
    },
    {
      "constant": false,
      "inputs": [
        {
          "name": "flight",
          "type": "string"
        },
        {
          "name": "timestamp",
          "type": "uint256"
        },
        {
          "name": "airline",
          "type": "address"
        },
        {
          "name": "insuree",
          "type": "address"
        }
      ],
      "name": "buy",
      "outputs": [],
      "payable": true,
      "stateMutability": "payable",
      "type": "function"
    },
    {
      "constant": false,
      "inputs": [
        {
          "name": "flight",
          "type": "string"
        },
        {
          "name": "timestamp",
          "type": "uint256"
        },
        {
          "name": "airline",
          "type": "address"
        }
      ],
      "name": "creditInsurees",
      "outputs": [],
      "payable": false,
      "stateMutability": "nonpayable",
      "type": "function"
    },
    {
      "constant": true,
      "inputs": [
        {
          "name": "insuree",
          "type": "address"
        }
      ],
      "name": "checkFunds",
      "outputs": [
        {
          "name": "",
          "type": "uint256"
        }
      ],
      "payable": false,
      "stateMutability": "view",
      "type": "function"
    },
    {
      "constant": false,
      "inputs": [
        {
          "name": "insuree",
          "type": "address"
        }
      ],
      "name": "pay",
      "outputs": [],
      "payable": false,
      "stateMutability": "nonpayable",
      "type": "function"
    },
    {
      "constant": false,
      "inputs": [
        {
          "name": "sender",
          "type": "address"
        }
      ],
      "name": "fundForwarded",
      "outputs": [],
      "payable": true,
      "stateMutability": "payable",
      "type": "function"
    }
  ],
  "bytecode": "0x60806040526001600060146101000a81548160ff0219169083151502179055506000600155600060025560006040519080825280602002602001820160405280156200005a5781602001602082028038833980820191505090505b50600490805190602001906200007292919062000111565b506000604051908082528060200260200182016040528015620000a45781602001602082028038833980820191505090505b5060079080519060200190620000bc92919062000163565b50348015620000ca57600080fd5b50336000806101000a81548173ffffffffffffffffffffffffffffffffffffffff021916908373ffffffffffffffffffffffffffffffffffffffff16021790555062000260565b82805482825590600052602060002090810192821562000150579160200282015b828111156200014f57825182559160200191906001019062000132565b5b5090506200015f9190620001f2565b5090565b828054828255906000526020600020908101928215620001df579160200282015b82811115620001de5782518260006101000a81548173ffffffffffffffffffffffffffffffffffffffff021916908373ffffffffffffffffffffffffffffffffffffffff1602179055509160200191906001019062000184565b5b509050620001ee91906200021a565b5090565b6200021791905b8082111562000213576000816000905550600101620001f9565b5090565b90565b6200025d91905b808211156200025957600081816101000a81549073ffffffffffffffffffffffffffffffffffffffff02191690555060010162000221565b5090565b90565b61310c80620002706000396000f3fe6080604052600436106101095760003560e01c80636873c21d1161009557806382a4f7bf1161006457806382a4f7bf1461040a57806394c260ee14610447578063cc936fe114610474578063cd905dff1461049f578063f53b6d65146104ca57610109565b80636873c21d1461036f57806373402358146103985780637ef9857a146103c35780637f9e1808146103df57610109565b80632c388d5d116100dc5780632c388d5d1461029b5780632d5052e9146102c457806336938f41146102e05780634266ed6a1461031d57806365c152f71461034657610109565b8063010c5c97146101e35780630c11dedd146102205780630e2c412914610249578063110466ed14610272575b6000341161014c576040517f08c379a000000000000000000000000000000000000000000000000000000000815260040161014390612bb9565b60405180910390fd5b61019e34600960003373ffffffffffffffffffffffffffffffffffffffff1673ffffffffffffffffffffffffffffffffffffffff1681526020019081526020016000205461050790919063ffffffff16565b600960003373ffffffffffffffffffffffffffffffffffffffff1673ffffffffffffffffffffffffffffffffffffffff16815260200190815260200160002081905550005b3480156101ef57600080fd5b5061020a600480360361020591908101906121e4565b61055c565b6040516102179190612b5e565b60405180910390f35b34801561022c57600080fd5b506102476004803603610242919081019061220d565b6105b5565b005b34801561025557600080fd5b50610270600480360361026b919081019061225f565b61070b565b005b34801561027e57600080fd5b5061029960048036036102949190810190612236565b61097b565b005b3480156102a757600080fd5b506102c260048036036102bd91908101906121e4565b610a27565b005b6102de60048036036102d991908101906121e4565b610b80565b005b3480156102ec57600080fd5b50610307600480360361030291908101906121e4565b610cdd565b6040516103149190612d19565b60405180910390f35b34801561032957600080fd5b50610344600480360361033f91908101906122b7565b610d26565b005b34801561035257600080fd5b5061036d600480360361036891908101906122b7565b61120b565b005b34801561037b57600080fd5b50610396600480360361039191908101906121e4565b6114ed565b005b3480156103a457600080fd5b506103ad611646565b6040516103ba9190612d19565b60405180910390f35b6103dd60048036036103d89190810190612323565b611652565b005b3480156103eb57600080fd5b506103f4611b35565b6040516104019190612d19565b60405180910390f35b34801561041657600080fd5b50610431600480360361042c91908101906123a3565b611b3f565b60405161043e9190612b5e565b60405180910390f35b34801561045357600080fd5b5061045c611b7d565b60405161046b93929190612b12565b60405180910390f35b34801561048057600080fd5b50610489611de8565b6040516104969190612d19565b60405180910390f35b3480156104ab57600080fd5b506104b4611df4565b6040516104c19190612b5e565b60405180910390f35b3480156104d657600080fd5b506104f160048036036104ec91908101906121e4565b611e0a565b6040516104fe9190612b5e565b60405180910390f35b600080828401905083811015610552576040517f08c379a000000000000000000000000000000000000000000000000000000000815260040161054990612b99565b60405180910390fd5b8091505092915050565b6000600560008373ffffffffffffffffffffffffffffffffffffffff1673ffffffffffffffffffffffffffffffffffffffff16815260200190815260200160002060000160009054906101000a900460ff169050919050565b6001600a60003373ffffffffffffffffffffffffffffffffffffffff1673ffffffffffffffffffffffffffffffffffffffff1681526020019081526020016000205414610637576040517f08c379a000000000000000000000000000000000000000000000000000000000815260040161062e90612c99565b60405180910390fd5b6000600860008373ffffffffffffffffffffffffffffffffffffffff1673ffffffffffffffffffffffffffffffffffffffff1681526020019081526020016000205490506000600860008473ffffffffffffffffffffffffffffffffffffffff1673ffffffffffffffffffffffffffffffffffffffff168152602001908152602001600020819055508173ffffffffffffffffffffffffffffffffffffffff166108fc829081150290604051600060405180830381858888f19350505050158015610706573d6000803e3d6000fd5b505050565b6001600a60003373ffffffffffffffffffffffffffffffffffffffff1673ffffffffffffffffffffffffffffffffffffffff168152602001908152602001600020541461078d576040517f08c379a000000000000000000000000000000000000000000000000000000000815260040161078490612c99565b60405180910390fd5b600560008273ffffffffffffffffffffffffffffffffffffffff1673ffffffffffffffffffffffffffffffffffffffff16815260200190815260200160002060000160009054906101000a900460ff161561081d576040517f08c379a000000000000000000000000000000000000000000000000000000000815260040161081490612c39565b60405180910390fd5b604051806060016040528060011515815260200184848080601f016020809104026020016040519081016040528093929190818152602001838380828437600081840152601f19601f8201169050808301925050505050505081526020018273ffffffffffffffffffffffffffffffffffffffff16815250600560008373ffffffffffffffffffffffffffffffffffffffff1673ffffffffffffffffffffffffffffffffffffffff16815260200190815260200160002060008201518160000160006101000a81548160ff0219169083151502179055506020820151816001019080519060200190610910929190611f46565b5060408201518160020160006101000a81548173ffffffffffffffffffffffffffffffffffffffff021916908373ffffffffffffffffffffffffffffffffffffffff1602179055509050506109706001805461050790919063ffffffff16565b600181905550505050565b6000809054906101000a900473ffffffffffffffffffffffffffffffffffffffff1673ffffffffffffffffffffffffffffffffffffffff163373ffffffffffffffffffffffffffffffffffffffff1614610a0a576040517f08c379a0000000000000000000000000000000000000000000000000000000008152600401610a0190612cd9565b60405180910390fd5b80600060146101000a81548160ff02191690831515021790555050565b6000809054906101000a900473ffffffffffffffffffffffffffffffffffffffff1673ffffffffffffffffffffffffffffffffffffffff163373ffffffffffffffffffffffffffffffffffffffff1614610ab6576040517f08c379a0000000000000000000000000000000000000000000000000000000008152600401610aad90612cd9565b60405180910390fd5b6000600a60008373ffffffffffffffffffffffffffffffffffffffff1673ffffffffffffffffffffffffffffffffffffffff1681526020019081526020016000205414610b38576040517f08c379a0000000000000000000000000000000000000000000000000000000008152600401610b2f90612cb9565b60405180910390fd5b6001600a60008373ffffffffffffffffffffffffffffffffffffffff1673ffffffffffffffffffffffffffffffffffffffff1681526020019081526020016000208190555050565b6001600a60003373ffffffffffffffffffffffffffffffffffffffff1673ffffffffffffffffffffffffffffffffffffffff1681526020019081526020016000205414610c02576040517f08c379a0000000000000000000000000000000000000000000000000000000008152600401610bf990612c99565b60405180910390fd5b60003411610c45576040517f08c379a0000000000000000000000000000000000000000000000000000000008152600401610c3c90612bb9565b60405180910390fd5b610c9734600960008473ffffffffffffffffffffffffffffffffffffffff1673ffffffffffffffffffffffffffffffffffffffff1681526020019081526020016000205461050790919063ffffffff16565b600960008373ffffffffffffffffffffffffffffffffffffffff1673ffffffffffffffffffffffffffffffffffffffff1681526020019081526020016000208190555050565b6000600860008373ffffffffffffffffffffffffffffffffffffffff1673ffffffffffffffffffffffffffffffffffffffff168152602001908152602001600020549050919050565b6000610d778286868080601f016020809104026020016040519081016040528093929190818152602001838380828437600081840152601f19601f8201169050808301925050505050505085611e5e565b905060008090505b6007805490508110156112035760006006600083815260200190815260200160002060050160009054906101000a900473ffffffffffffffffffffffffffffffffffffffff1690506000610ed76006600085815260200190815260200160002060000160010160019054906101000a900473ffffffffffffffffffffffffffffffffffffffff16600660008681526020019081526020016000206000016000018054600181600116156101000203166002900480601f016020809104026020016040519081016040528092919081815260200182805460018160011615610100020316600290048015610eb35780601f10610e8857610100808354040283529160200191610eb3565b820191906000526020600020905b815481529060010190602001808311610e9657829003601f168201915b50505050506006600087815260200190815260200160002060000160030154611e5e565b90507f4fb363c2ce8b0a3816b5d4f90d7d960963aa82b61609aaca13516b9ab44d5eb6836006600086815260200190815260200160002060050160009054906101000a900473ffffffffffffffffffffffffffffffffffffffff1686888c8c8c6000604051610f4d989796959493929190612d34565b60405180910390a17f4fb363c2ce8b0a3816b5d4f90d7d960963aa82b61609aaca13516b9ab44d5eb6836006600086815260200190815260200160002060050160009054906101000a900473ffffffffffffffffffffffffffffffffffffffff16836006600088815260200190815260200160002060000160010160019054906101000a900473ffffffffffffffffffffffffffffffffffffffff1660066000898152602001908152602001600020600001600001600660008a815260200190815260200160002060000160030154600660008b8152602001908152602001600020600401546040516110469796959493929190612dac565b60405180910390a16000600660008581526020019081526020016000206004015414156110745750506111f8565b808414156111f55760006006600085815260200190815260200160002060040154905060006110ad600283611e9490919063ffffffff16565b90506000600660008781526020019081526020016000206004018190555060006110e0828461050790919063ffffffff16565b905061113481600860008873ffffffffffffffffffffffffffffffffffffffff1673ffffffffffffffffffffffffffffffffffffffff1681526020019081526020016000205461050790919063ffffffff16565b600860008773ffffffffffffffffffffffffffffffffffffffff1673ffffffffffffffffffffffffffffffffffffffff168152602001908152602001600020819055507f3eed7b857edadc1405e4ab4dc8177afc8eb53be4bc241e7f42570eff8f1912ab8582600860008973ffffffffffffffffffffffffffffffffffffffff1673ffffffffffffffffffffffffffffffffffffffff168152602001908152602001600020546040516111e993929190612adb565b60405180910390a15050505b50505b806001019050610d7f565b505050505050565b6001600a60003373ffffffffffffffffffffffffffffffffffffffff1673ffffffffffffffffffffffffffffffffffffffff168152602001908152602001600020541461128d576040517f08c379a000000000000000000000000000000000000000000000000000000000815260040161128490612c99565b60405180910390fd5b60006112de85858080601f016020809104026020016040519081016040528093929190818152602001838380828437600081840152601f19601f820116905080830192505050505050508484611b3f565b90508015611321576040517f08c379a000000000000000000000000000000000000000000000000000000000815260040161131890612c59565b60405180910390fd5b60006113728387878080601f016020809104026020016040519081016040528093929190818152602001838380828437600081840152601f19601f8201169050808301925050505050505086611e5e565b90506003600082815260200190815260200160002060010160009054906101000a900460ff16156113d8576040517f08c379a00000000000000000000000000000000000000000000000000000000081526004016113cf90612bf9565b60405180910390fd5b85856003600084815260200190815260200160002060000191906113fd929190611fc6565b5060016003600083815260200190815260200160002060010160006101000a81548160ff021916908315150217905550826003600083815260200190815260200160002060010160016101000a81548173ffffffffffffffffffffffffffffffffffffffff021916908373ffffffffffffffffffffffffffffffffffffffff160217905550600060036000838152602001908152602001600020600201819055508360036000838152602001908152602001600020600301819055506004819080600181540180825580915050906001820390600052602060002001600090919290919091505550505050505050565b6000809054906101000a900473ffffffffffffffffffffffffffffffffffffffff1673ffffffffffffffffffffffffffffffffffffffff163373ffffffffffffffffffffffffffffffffffffffff161461157c576040517f08c379a000000000000000000000000000000000000000000000000000000000815260040161157390612cd9565b60405180910390fd5b6001600a60008373ffffffffffffffffffffffffffffffffffffffff1673ffffffffffffffffffffffffffffffffffffffff16815260200190815260200160002054146115fe576040517f08c379a00000000000000000000000000000000000000000000000000000000081526004016115f590612b79565b60405180910390fd5b6000600a60008373ffffffffffffffffffffffffffffffffffffffff1673ffffffffffffffffffffffffffffffffffffffff1681526020019081526020016000208190555050565b678ac7230489e8000081565b6001600a60003373ffffffffffffffffffffffffffffffffffffffff1673ffffffffffffffffffffffffffffffffffffffff16815260200190815260200160002054146116d4576040517f08c379a00000000000000000000000000000000000000000000000000000000081526004016116cb90612c99565b60405180910390fd5b6000341015611718576040517f08c379a000000000000000000000000000000000000000000000000000000000815260040161170f90612cf9565b60405180910390fd5b80600061176a8488888080601f016020809104026020016040519081016040528093929190818152602001838380828437600081840152601f19601f8201169050808301925050505050505087611e5e565b90506003600082815260200190815260200160002060010160009054906101000a900460ff166117cf576040517f08c379a00000000000000000000000000000000000000000000000000000000081526004016117c690612c79565b60405180910390fd5b6000809050670de0b6b3a764000034106117f357670de0b6b3a764000090506117f7565b3490505b6003600083815260200190815260200160002060066000600254815260200190815260200160002060000160008201816000019080546001816001161561010002031660029004611849929190612046565b506001820160009054906101000a900460ff168160010160006101000a81548160ff0219169083151502179055506001820160019054906101000a900473ffffffffffffffffffffffffffffffffffffffff168160010160016101000a81548173ffffffffffffffffffffffffffffffffffffffff021916908373ffffffffffffffffffffffffffffffffffffffff16021790555060028201548160020155600382015481600301559050508360066000600254815260200190815260200160002060050160006101000a81548173ffffffffffffffffffffffffffffffffffffffff021916908373ffffffffffffffffffffffffffffffffffffffff160217905550806006600060025481526020019081526020016000206004018190555061197f600160025461050790919063ffffffff16565b60028190555060078490806001815401808255809150509060018203906000526020600020016000909192909190916101000a81548173ffffffffffffffffffffffffffffffffffffffff021916908373ffffffffffffffffffffffffffffffffffffffff160217905550505050670de0b6b3a7640000341115611b2d576000611a1a670de0b6b3a764000034611ef090919063ffffffff16565b9050611a6e81600860008573ffffffffffffffffffffffffffffffffffffffff1673ffffffffffffffffffffffffffffffffffffffff1681526020019081526020016000205461050790919063ffffffff16565b600860008473ffffffffffffffffffffffffffffffffffffffff1673ffffffffffffffffffffffffffffffffffffffff168152602001908152602001600020819055507f3eed7b857edadc1405e4ab4dc8177afc8eb53be4bc241e7f42570eff8f1912ab8282600860008673ffffffffffffffffffffffffffffffffffffffff1673ffffffffffffffffffffffffffffffffffffffff16815260200190815260200160002054604051611b2393929190612adb565b60405180910390a1505b505050505050565b6000600154905090565b600080611b4d838686611e5e565b90506003600082815260200190815260200160002060010160009054906101000a900460ff169150509392505050565b606080606060006004805490509050606081604051908082528060200260200182016040528015611bc257816020015b6060815260200190600190039081611bad5790505b509050606082604051908082528060200260200182016040528015611bf65781602001602082028038833980820191505090505b509050606083604051908082528060200260200182016040528015611c2a5781602001602082028038833980820191505090505b50905060008090505b84811015611dd557600060048281548110611c4a57fe5b90600052602060002001549050600360008281526020019081526020016000206000018054600181600116156101000203166002900480601f016020809104026020016040519081016040528092919081815260200182805460018160011615610100020316600290048015611d015780601f10611cd657610100808354040283529160200191611d01565b820191906000526020600020905b815481529060010190602001808311611ce457829003601f168201915b5050505050858381518110611d1257fe5b60200260200101819052506003600082815260200190815260200160002060010160019054906101000a900473ffffffffffffffffffffffffffffffffffffffff16848381518110611d6057fe5b602002602001019073ffffffffffffffffffffffffffffffffffffffff16908173ffffffffffffffffffffffffffffffffffffffff16815250506003600082815260200190815260200160002060030154838381518110611dbd57fe5b60200260200101818152505050806001019050611c33565b5082828296509650965050505050909192565b670de0b6b3a764000081565b60008060149054906101000a900460ff16905090565b6000678ac7230489e80000600960008473ffffffffffffffffffffffffffffffffffffffff1673ffffffffffffffffffffffffffffffffffffffff1681526020019081526020016000205410159050919050565b6000838383604051602001611e7593929190612aa2565b6040516020818303038152906040528051906020012090509392505050565b6000808211611ed8576040517f08c379a0000000000000000000000000000000000000000000000000000000008152600401611ecf90612c19565b60405180910390fd5b6000828481611ee357fe5b0490508091505092915050565b600082821115611f35576040517f08c379a0000000000000000000000000000000000000000000000000000000008152600401611f2c90612bd9565b60405180910390fd5b600082840390508091505092915050565b828054600181600116156101000203166002900490600052602060002090601f016020900481019282601f10611f8757805160ff1916838001178555611fb5565b82800160010185558215611fb5579182015b82811115611fb4578251825591602001919060010190611f99565b5b509050611fc291906120cd565b5090565b828054600181600116156101000203166002900490600052602060002090601f016020900481019282601f1061200757803560ff1916838001178555612035565b82800160010185558215612035579182015b82811115612034578235825591602001919060010190612019565b5b50905061204291906120cd565b5090565b828054600181600116156101000203166002900490600052602060002090601f016020900481019282601f1061207f57805485556120bc565b828001600101855582156120bc57600052602060002091601f016020900482015b828111156120bb5782548255916001019190600101906120a0565b5b5090506120c991906120cd565b5090565b6120ef91905b808211156120eb5760008160009055506001016120d3565b5090565b90565b60008135905061210181613076565b92915050565b6000813590506121168161308d565b92915050565b60008135905061212b816130a4565b92915050565b60008083601f84011261214357600080fd5b8235905067ffffffffffffffff81111561215c57600080fd5b60208301915083600182028301111561217457600080fd5b9250929050565b600082601f83011261218c57600080fd5b813561219f61219a82612e4f565b612e22565b915080825260208301602083018583830111156121bb57600080fd5b6121c6838284612fe8565b50505092915050565b6000813590506121de816130bb565b92915050565b6000602082840312156121f657600080fd5b6000612204848285016120f2565b91505092915050565b60006020828403121561221f57600080fd5b600061222d84828501612107565b91505092915050565b60006020828403121561224857600080fd5b60006122568482850161211c565b91505092915050565b60008060006040848603121561227457600080fd5b600084013567ffffffffffffffff81111561228e57600080fd5b61229a86828701612131565b935093505060206122ad868287016120f2565b9150509250925092565b600080600080606085870312156122cd57600080fd5b600085013567ffffffffffffffff8111156122e757600080fd5b6122f387828801612131565b94509450506020612306878288016121cf565b9250506040612317878288016120f2565b91505092959194509250565b60008060008060006080868803121561233b57600080fd5b600086013567ffffffffffffffff81111561235557600080fd5b61236188828901612131565b95509550506020612374888289016121cf565b9350506040612385888289016120f2565b9250506060612396888289016120f2565b9150509295509295909350565b6000806000606084860312156123b857600080fd5b600084013567ffffffffffffffff8111156123d257600080fd5b6123de8682870161217b565b93505060206123ef868287016121cf565b9250506040612400868287016120f2565b9150509250925092565b6000612416838361244e565b60208301905092915050565b600061242e838361263f565b905092915050565b60006124428383612a6d565b60208301905092915050565b61245781612f72565b82525050565b61246681612f72565b82525050565b61247d61247882612f72565b61302a565b82525050565b600061248e82612eb4565b6124988185612f12565b93506124a383612e7b565b8060005b838110156124d45781516124bb888261240a565b97506124c683612eeb565b9250506001810190506124a7565b5085935050505092915050565b60006124ec82612ebf565b6124f68185612f23565b93508360208202850161250885612e88565b8060005b8581101561254457848403895281516125258582612422565b945061253083612ef8565b925060208a0199505060018101905061250c565b50829750879550505050505092915050565b600061256182612eca565b61256b8185612f34565b935061257683612e95565b8060005b838110156125a757815161258e8882612436565b975061259983612f05565b92505060018101905061257a565b5085935050505092915050565b6125bd81612f96565b82525050565b6125cc81612fa2565b82525050565b6125db81612fd6565b82525050565b60006125ed8385612f56565b93506125fa838584612fe8565b61260383613058565b840190509392505050565b600061261982612ee0565b6126238185612f67565b9350612633818560208601612ff7565b80840191505092915050565b600061264a82612ed5565b6126548185612f45565b9350612664818560208601612ff7565b61266d81613058565b840191505092915050565b60008154600181166000811461269557600181146126bb576126ff565b607f60028304166126a68187612f56565b955060ff1983168652602086019350506126ff565b600282046126c98187612f56565b95506126d485612ea2565b60005b828110156126f6578154818901526001820191506020810190506126d7565b80880195505050505b505092915050565b6000612714601a83612f56565b91507f4164647265737320776173206e6f7420617574686f72697a65640000000000006000830152602082019050919050565b6000612754601b83612f56565b91507f536166654d6174683a206164646974696f6e206f766572666c6f7700000000006000830152602082019050919050565b6000612794601883612f56565b91507f4e6f2066756e647320617265206e6f7420616c6c6f77656400000000000000006000830152602082019050919050565b60006127d4601e83612f56565b91507f536166654d6174683a207375627472616374696f6e206f766572666c6f7700006000830152602082019050919050565b6000612814601d83612f56565b91507f466c6967687420697320616c726561647920726567697374657265642e0000006000830152602082019050919050565b6000612854601a83612f56565b91507f536166654d6174683a206469766973696f6e206279207a65726f0000000000006000830152602082019050919050565b6000612894601e83612f56565b91507f4169726c696e6520697320616c726561647920726567697374657265642e00006000830152602082019050919050565b60006128d4601c83612f56565b91507f466c6967687420697320616c72656164792072656769737465726564000000006000830152602082019050919050565b6000612914601583612f56565b91507f466c6967687420646f6573206e6f7420657869737400000000000000000000006000830152602082019050919050565b6000612954601883612f56565b91507f43616c6c6572206973206e6f7420617574686f72697a656400000000000000006000830152602082019050919050565b6000612994601a83612f56565b91507f4164647265737320616c726561647920617574686f72697a65640000000000006000830152602082019050919050565b60006129d4601c83612f56565b91507f43616c6c6572206973206e6f7420636f6e7472616374206f776e6572000000006000830152602082019050919050565b6000612a14602283612f56565b91507f4e6f7468696e6720776173207061696420666f722074686520696e737572616e60008301527f63650000000000000000000000000000000000000000000000000000000000006020830152604082019050919050565b612a7681612fcc565b82525050565b612a8581612fcc565b82525050565b612a9c612a9782612fcc565b61304e565b82525050565b6000612aae828661246c565b601482019150612abe828561260e565b9150612aca8284612a8b565b602082019150819050949350505050565b6000606082019050612af0600083018661245d565b612afd6020830185612a7c565b612b0a6040830184612a7c565b949350505050565b60006060820190508181036000830152612b2c81866124e1565b90508181036020830152612b408185612483565b90508181036040830152612b548184612556565b9050949350505050565b6000602082019050612b7360008301846125b4565b92915050565b60006020820190508181036000830152612b9281612707565b9050919050565b60006020820190508181036000830152612bb281612747565b9050919050565b60006020820190508181036000830152612bd281612787565b9050919050565b60006020820190508181036000830152612bf2816127c7565b9050919050565b60006020820190508181036000830152612c1281612807565b9050919050565b60006020820190508181036000830152612c3281612847565b9050919050565b60006020820190508181036000830152612c5281612887565b9050919050565b60006020820190508181036000830152612c72816128c7565b9050919050565b60006020820190508181036000830152612c9281612907565b9050919050565b60006020820190508181036000830152612cb281612947565b9050919050565b60006020820190508181036000830152612cd281612987565b9050919050565b60006020820190508181036000830152612cf2816129c7565b9050919050565b60006020820190508181036000830152612d1281612a07565b9050919050565b6000602082019050612d2e6000830184612a7c565b92915050565b600060e082019050612d49600083018b612a7c565b612d56602083018a61245d565b612d6360408301896125c3565b612d70606083018861245d565b8181036080830152612d838186886125e1565b9050612d9260a0830185612a7c565b612d9f60c08301846125d2565b9998505050505050505050565b600060e082019050612dc1600083018a612a7c565b612dce602083018961245d565b612ddb60408301886125c3565b612de8606083018761245d565b8181036080830152612dfa8186612678565b9050612e0960a0830185612a7c565b612e1660c0830184612a7c565b98975050505050505050565b6000604051905081810181811067ffffffffffffffff82111715612e4557600080fd5b8060405250919050565b600067ffffffffffffffff821115612e6657600080fd5b601f19601f8301169050602081019050919050565b6000602082019050919050565b6000602082019050919050565b6000602082019050919050565b60008160005260206000209050919050565b600081519050919050565b600081519050919050565b600081519050919050565b600081519050919050565b600081519050919050565b6000602082019050919050565b6000602082019050919050565b6000602082019050919050565b600082825260208201905092915050565b600082825260208201905092915050565b600082825260208201905092915050565b600082825260208201905092915050565b600082825260208201905092915050565b600081905092915050565b6000612f7d82612fac565b9050919050565b6000612f8f82612fac565b9050919050565b60008115159050919050565b6000819050919050565b600073ffffffffffffffffffffffffffffffffffffffff82169050919050565b6000819050919050565b6000612fe182612fcc565b9050919050565b82818337600083830152505050565b60005b83811015613015578082015181840152602081019050612ffa565b83811115613024576000848401525b50505050565b60006130358261303c565b9050919050565b600061304782613069565b9050919050565b6000819050919050565b6000601f19601f8301169050919050565b60008160601b9050919050565b61307f81612f72565b811461308a57600080fd5b50565b61309681612f84565b81146130a157600080fd5b50565b6130ad81612f96565b81146130b857600080fd5b50565b6130c481612fcc565b81146130cf57600080fd5b5056fea265627a7a72305820f994ae8b1a5476f2d8c13a1c865fbdb9f8b0cb90821ee7cf3cdfaf935342d3d46c6578706572696d656e74616cf50037",
  "source": "pragma solidity ^0.5.8;\npragma experimental ABIEncoderV2;\n\nimport \"../node_modules/openzeppelin-solidity/contracts/math/SafeMath.sol\";\n\ncontract FlightSuretyData {\n    using SafeMath for uint256;\n\n    /********************************************************************************************/\n    /*                                       DATA VARIABLES                                     */\n    /********************************************************************************************/\n\n    address private contractOwner;\n    bool private operational = true;\n\n    struct Airline {\n        bool isRegistered;\n        string name;\n        address wallet;\n    }\n\n    struct Insurance {\n        Flight flight;\n        uint256 value;\n        address customer;\n    }\n\n    struct Flight {\n        string name;\n        bool isRegistered;\n        address airline;\n        uint statusCode;\n        uint256 timestamp;\n    }\n\n    uint private airlineCount = 0;                              // Count how many airlines are registerd\n    uint private next_insurance = 0;                            // Count how many insurances are purchased\n\n    mapping(bytes32 => Flight) private flights;                 // Mapping for storing flights\n    bytes32[] private flight_keys = new bytes32[](0);           // To track all the flights registered\n    mapping(address => Airline) private airlines;               // Mapping for storing airlines\n    mapping(uint => Insurance) private insurances;              // Mapping for storing insurances\n    address[] private insurees = new address[](0);              // To track all the passenger addresses that have purchased the insurance\n    mapping(address => uint256) private payouts;                // Mapping for storing insurance refund payouts\n    mapping(address => uint256) private funds;                  // Mapping for storing funds\n    mapping(address => uint256) private authorizedContracts;    //Mapping for storing authorizedContracts\n\n    uint256 public constant MAX_INSURANCE_POLICY = 1 ether;     //maximum value of purchasing flight insurance\n    uint256 public constant AIRLINE_MIN_FUNDS = 10 ether;       //minimum value of participating in contract\n\n    /********************************************************************************************/\n    /*                                       EVENT DEFINITIONS                                  */\n    /********************************************************************************************/\n    event InsureeCredited(address insuree, uint credit, uint total);\n    event debug(uint i, address insuree, bytes32 id, address airline, string flight, uint256 ftimestamp, uint256 value);\n\n    /**\n    * @dev Constructor\n    *      The deploying account becomes contractOwner\n    */\n    constructor() public{\n        contractOwner = msg.sender;\n    }\n\n    /********************************************************************************************/\n    /*                                       FUNCTION MODIFIERS                                 */\n    /********************************************************************************************/\n\n    // Modifiers help avoid duplication of code. They are typically used to validate something\n    // before a function is allowed to be executed.\n\n    /**\n    * @dev Modifier that requires the \"operational\" boolean variable to be \"true\"\n    *      This is used on all state changing functions to pause the contract in\n    *      the event there is an issue that needs to be fixed\n    */\n    modifier requireIsOperational(){\n        require(operational, \"Contract is currently not operational\");\n        _;\n    }\n\n    /**\n    * @dev Modifier that requires the \"ContractOwner\" account to be the function caller\n    */\n    modifier requireContractOwner(){\n        require(msg.sender == contractOwner, \"Caller is not contract owner\");\n        _;\n    }\n\n    /**\n    * @dev Modifier that checks whether it is called from authorized (FlightSuretyApp) contract\n    */\n    modifier isCallerAuthorized() {\n        require(authorizedContracts[msg.sender] == 1, \"Caller is not authorized\");\n        _;\n    }\n\n    /**\n    * @dev Define a modifier that checks if the paid amount is sufficient to cover the price\n    */\n    modifier paidInRange() {\n        require(msg.value >= 0, \"Nothing was paid for the insurance\");\n        _;\n    }\n\n    /**\n    * @dev Define a modifier that checks the price and refunds the remaining balance\n    */\n    modifier checkAndRefund(address insuree) {\n        _;\n        if (msg.value > MAX_INSURANCE_POLICY) {\n            uint amountToReturn = msg.value.sub(MAX_INSURANCE_POLICY);\n            payouts[insuree] = payouts[insuree].add(amountToReturn);\n            emit InsureeCredited(insuree, amountToReturn, payouts[insuree]);\n        }\n    }\n\n    /********************************************************************************************/\n    /*                                       UTILITY FUNCTIONS                                  */\n    /********************************************************************************************/\n\n    /**\n    * @dev Get operating status of contract\n    * @return A bool that is the current operating status\n    */\n    function isOperational() public view returns (bool){\n        return operational;\n    }\n\n\n    /**\n    * @dev Sets contract operations on/off\n    * When operational mode is disabled, all write transactions except for this one will fail\n    */\n    function setOperatingStatus(bool mode) external requireContractOwner{\n        operational = mode;\n    }\n\n    /**\n    * @dev To authorize contract (this function can be requested from front-end)\n    */\n    function authorizeCaller(address caller) public requireContractOwner {\n        require(authorizedContracts[caller] == 0, \"Address already authorized\");\n        authorizedContracts[caller] = 1;\n    }\n\n    /**\n    * @dev To deauthorize contract\n    */\n    function deauthorizeCaller(address caller) public requireContractOwner {\n        require(authorizedContracts[caller] == 1, \"Address was not authorized\");\n        authorizedContracts[caller] = 0;\n    }\n\n    /********************************************************************************************/\n    /*                                     SMART CONTRACT FUNCTIONS                             */\n    /********************************************************************************************/\n\n    /**\n     * @dev Add an airline to the registration queue\n     *      Can only be called from FlightSuretyApp contract\n     */\n    function registerAirline(string calldata name, address wallet) external isCallerAuthorized{\n        require(!airlines[wallet].isRegistered, \"Airline is already registered.\");\n        airlines[wallet] = Airline({name : name, isRegistered : true, wallet : wallet});\n        airlineCount = airlineCount.add(1);\n    }\n\n    /**\n    * @dev To get the number of airlines registered\n    */\n    function getAirlineCount() public view returns (uint256) {\n        return airlineCount;\n    }\n\n    /**\n    * @dev To get the information about the specific airline (this function can be requested from front-end)\n    */\n    function getFlights() external view returns (string[] memory, address[] memory, uint256[] memory) {\n        uint l = flight_keys.length;\n        string[] memory names = new string[](l);\n        address[] memory airline_addr = new address[](l);\n        uint256[] memory timestamps = new uint256[](l);\n\n        for (uint i = 0; i < l; ++i) {\n            bytes32 key = flight_keys[i];\n            names[i] = flights[key].name;\n            airline_addr[i] = flights[key].airline;\n            timestamps[i] = flights[key].timestamp;\n        }\n        return (names, airline_addr, timestamps);\n    }\n\n    /**\n    * @dev To check whether the specific airline is registered\n    */\n    function isAirlineRegistered(address wallet) external view returns (bool) {\n        return airlines[wallet].isRegistered;\n    }\n\n    /**\n    * @dev To check whether the specific airline meets the minimum funds requirement\n    */\n    function isAirlineFunded(address wallet) external view returns (bool) {\n        return funds[wallet] >= AIRLINE_MIN_FUNDS;\n    }\n\n    /**\n    * @dev To check whether the specific flight is already registered\n    */\n    function isFlightRegistered(string memory name, uint256 timestamp, address airline) public view returns (bool) {\n        bytes32 id = getFlightKey(airline, name, timestamp);\n        return flights[id].isRegistered;\n    }\n\n    /**\n    * @dev To register flights\n    */\n    function registerFlight(string calldata name, uint256 timestamp, address airline) external isCallerAuthorized {\n        bool registered = isFlightRegistered(name, timestamp, airline);\n        require(!registered, \"Flight is already registered\");\n        bytes32 id = getFlightKey(airline, name, timestamp);\n        require(!flights[id].isRegistered, \"Flight is already registered.\");\n        flights[id].name = name;\n        flights[id].isRegistered = true;\n        flights[id].airline = airline;\n        flights[id].statusCode = 0;\n        flights[id].timestamp = timestamp;\n        flight_keys.push(id);\n    }\n\n    /**\n     * @dev To buy insurance for a flight\n     */\n    function buy(string calldata flight, uint256 timestamp, address airline, address insuree) external payable isCallerAuthorized paidInRange checkAndRefund(insuree){\n        bytes32 id = getFlightKey(airline, flight, timestamp);\n        require(flights[id].isRegistered, \"Flight does not exist\");\n\n        uint insurance_value = 0;\n\n        if (msg.value >= MAX_INSURANCE_POLICY) {\n            insurance_value = MAX_INSURANCE_POLICY;\n        } else {\n            insurance_value = msg.value;\n        }\n\n        insurances[next_insurance].flight = flights[id];\n        insurances[next_insurance].customer = insuree;\n        insurances[next_insurance].value = insurance_value;\n        next_insurance = next_insurance.add(1);\n        insurees.push(insuree);\n    }\n\n    /**\n     *  @dev Credits payouts to insurees\n    */\n    function creditInsurees(string calldata flight, uint256 timestamp, address airline)external{\n        bytes32 id = getFlightKey(airline, flight, timestamp);\n        for (uint i = 0; i < insurees.length; ++i) {\n            address insuree = insurances[i].customer;\n            bytes32 id2 = getFlightKey(insurances[i].flight.airline, insurances[i].flight.name, insurances[i].flight.timestamp);\n            emit debug(i, insurances[i].customer, id, airline, flight, timestamp, 0);\n            emit debug(i, insurances[i].customer, id2, insurances[i].flight.airline, insurances[i].flight.name, insurances[i].flight.timestamp, insurances[i].value);\n            if(insurances[i].value == 0) continue;\n            if (id == id2) {\n                uint256 value = insurances[i].value;\n                uint256 half = value.div(2);\n                insurances[i].value = 0;\n                uint256 refund = value.add(half);\n                payouts[insuree] = payouts[insuree].add(refund);\n                emit InsureeCredited(insuree, refund, payouts[insuree]);\n            }\n        }\n    }\n\n    /**\n    * @dev To check any funds owed to the passenger\n    */\n    function checkFunds(address insuree) external view returns (uint){\n        return payouts[insuree];\n    }\n\n    /**\n    *  @dev Transfers eligible payout funds to insuree\n    */\n    function pay(address payable insuree) external isCallerAuthorized{\n        uint refund = payouts[insuree];\n        payouts[insuree] = 0;\n        insuree.transfer(refund);\n    }\n\n    /**\n     * @dev Initial funding for the insurance. Unless there are too many delayed flights\n     *      resulting in insurance payouts, the contract should be self-sustaining\n     */\n    function fundForwarded(address sender) external payable isCallerAuthorized{\n        require(msg.value > 0, \"No funds are not allowed\");\n        funds[sender] = funds[sender].add(msg.value);\n    }\n\n    /**\n    * @dev To generate flight key in hash by airline, flight, and timestamp\n    */\n    function getFlightKey(address airline,string memory flight,uint256 timestamp) pure internal returns (bytes32){\n        return keccak256(abi.encodePacked(airline, flight, timestamp));\n    }\n\n    /**\n    * @dev Fallback function for funding smart contract.\n    */\n    function()external payable{\n        require(msg.value > 0, \"No funds are not allowed\");\n        funds[msg.sender] = funds[msg.sender].add(msg.value);\n    }\n}",
  "sourcePath": "/Users/Divik/Desktop/Development/Udacity/5.Daap_with_autonomous_SmartContract/FlightSurety/contracts/FlightSuretyData.sol",
  "compiler": {
    "name": "solc",
    "version": "0.5.8+commit.23d335f2.Emscripten.clang"
  },
  "schemaVersion": "3.0.16",
  "updatedAt": "2019-09-29T11:43:53.681Z",
  "devdoc": {
    "methods": {
      "authorizeCaller(address)": {
        "details": "To authorize contract (this function can be requested from front-end)"
      },
      "buy(string,uint256,address,address)": {
        "details": "To buy insurance for a flight"
      },
      "checkFunds(address)": {
        "details": "To check any funds owed to the passenger"
      },
      "constructor": {
        "details": "Constructor     The deploying account becomes contractOwner"
      },
      "creditInsurees(string,uint256,address)": {
        "details": "Credits payouts to insurees"
      },
      "deauthorizeCaller(address)": {
        "details": "To deauthorize contract"
      },
      "fundForwarded(address)": {
        "details": "Initial funding for the insurance. Unless there are too many delayed flights     resulting in insurance payouts, the contract should be self-sustaining"
      },
      "getAirlineCount()": {
        "details": "To get the number of airlines registered"
      },
      "getFlights()": {
        "details": "To get the information about the specific airline (this function can be requested from front-end)"
      },
      "isAirlineFunded(address)": {
        "details": "To check whether the specific airline meets the minimum funds requirement"
      },
      "isAirlineRegistered(address)": {
        "details": "To check whether the specific airline is registered"
      },
      "isFlightRegistered(string,uint256,address)": {
        "details": "To check whether the specific flight is already registered"
      },
      "isOperational()": {
        "details": "Get operating status of contract",
        "return": "A bool that is the current operating status"
      },
      "pay(address)": {
        "details": "Transfers eligible payout funds to insuree"
      },
      "registerAirline(string,address)": {
        "details": "Add an airline to the registration queue     Can only be called from FlightSuretyApp contract"
      },
      "registerFlight(string,uint256,address)": {
        "details": "To register flights"
      },
      "setOperatingStatus(bool)": {
        "details": "Sets contract operations on/off When operational mode is disabled, all write transactions except for this one will fail"
      }
    }
  },
  "userdoc": {
    "methods": {}
  }
}